:100000000C9462000C948A000C948A000C948A0070
:100010000C948A000C948A000C948A000C948A0038
:100020000C948A000C948A000C948A000C948A0028
:100030000C948A000C948A000C948A000C948A0018
:100040000C94B7020C948A000C9485020C945F0205
:100050000C948A000C948A000C948A000C948A00F8
:100060000C948A000C948A000000000025002800EF
:100070002B0000000000240027002A0000000000E0
:1000800023002600290004040404040404040202DA
:100090000202020203030303030301020408102007
:1000A0004080010204081020010204081020000012
:1000B0000008000201000003040700000000000027
:1000C00000004E0411241FBECFEFD8E0DEBFCDBF2D
:1000D00011E0A0E0B1E0E0E1F9E002C005900D928E
:1000E000AC38B107D9F722E0ACE8B1E001C01D920D
:1000F000A633B207E1F710E0C2E6D0E004C02197D2
:10010000FE010E947B04C136D107C9F70E9401039A
:100110000C9486040C940000CF92DF92EF92FF9231
:100120000F931F93CF93DF936C017A018B01C0E093
:10013000D0E0CE15DF0589F0D8016D918D01D60193
:10014000ED91FC910190F081E02DC6010995892B7C
:1001500011F47E0102C02196ECCFC701DF91CF914F
:100160001F910F91FF90EF90DF90CF900895FC01C9
:10017000918D828D981761F0828DDF01A80FB11DDE
:100180005D968C91928D9F5F9F73928F90E0089502
:100190008FEF9FEF0895FC01918D828D981731F0BC
:1001A000828DE80FF11D858D90E008958FEF9FEF10
:1001B0000895FC01918D228D892F90E0805C9F4FE6
:1001C000821B91098F739927089589E991E00E9414
:1001D000D90021E0892B09F420E0822F0895FC0149
:1001E000848DDF01A80FB11DA35ABF4F2C91848DC0
:1001F00090E001968F739927848FA689B7892C93F5
:10020000A089B1898C9180648C93938D848D98138F
:1002100006C00288F389E02D80818F7D8083089558
:10022000EF92FF920F931F93CF93DF93EC0181E046
:10023000888F9B8D8C8D981305C0E889F989808102
:1002400085FD24C0F62E0B8D10E00F5F1F4F0F733E
:100250001127E02E8C8DE8120CC00FB607FCFACFE8
:10026000E889F989808185FFF5CFCE010E94EF00F2
:10027000F1CF8B8DFE01E80FF11DE35AFF4FF082A5
:100280000B8FEA89FB898081806207C0EE89FF8934
:100290006083E889F98980818064808381E090E0CF
:1002A000DF91CF911F910F91FF90EF900895CF9321
:1002B000DF93EC01888D8823C9F0EA89FB8980816E
:1002C00085FD05C0A889B9898C9186FD0FC00FB640
:1002D00007FCF5CF808185FFF2CFA889B9898C9181
:1002E00085FFEDCFCE010E94EF00E7CFDF91CF91E8
:1002F000089580E090E0892B29F00E94E5008111AB
:100300000C9400000895833081F028F4813099F036
:100310008230A1F008958730A9F08830B9F0843098
:10032000D1F4809180008F7D03C0809180008F7711
:1003300080938000089584B58F7702C084B58F7D47
:1003400084BD08958091B0008F7703C08091B00084
:100350008F7D8093B00008951F93CF93DF93282F54
:1003600030E0F901E255FF4F8491F901E656FF4F65
:10037000D491F901EA57FF4FC491CC23C9F0162F4D
:1003800081110E948301EC2FF0E0EE0FFF1FE8596E
:10039000FF4FA591B4918FB7F894111105C09C91AE
:1003A000ED2FE095E92302C0EC91ED2BEC938FBF8C
:1003B000DF91CF911F9108953FB7F89480919101FB
:1003C00090919201A0919301B091940126B5A89BC0
:1003D00005C02F3F19F00196A11DB11D3FBFBA2FD7
:1003E000A92F982F8827820F911DA11DB11DBC0137
:1003F000CD0142E0660F771F881F991F4A95D1F7FC
:1004000008958F929F92AF92BF92CF92DF92EF9218
:10041000FF926B017C010E94DC014B015C01C11465
:10042000D104E104F104F1F00E94DC01DC01CB0114
:1004300088199909AA09BB09883E9340A105B1050D
:1004400070F321E0C21AD108E108F10888EE880EA5
:1004500083E0981EA11CB11CC114D104E104F10475
:1004600019F7DDCFFF90EF90DF90CF90BF90AF9066
:100470009F908F900895CF93DF93009779F0FC01C0
:1004800001900020E9F73197AF01481B590BBC01DF
:1004900089E991E00E948C00EC0102C0C0E0D0E04C
:1004A00042E050E060E171E089E991E00E948C0057
:1004B0008C0F9D1FDF91CF9108950E9481041F92A0
:1004C0000F920FB60F9211242F933F934F935F9388
:1004D0006F937F938F939F93AF93BF93EF93FF930C
:1004E00089E991E00E94EF00FF91EF91BF91AF91F8
:1004F0009F918F917F916F915F914F913F912F913C
:100500000F900FBE0F901F9018951F920F920FB66D
:100510000F9211242F938F939F93EF93FF93E0916A
:10052000A901F091AA018081E091AF01F091B001A1
:1005300082FD12C090818091B2018F5F8F732091F4
:10054000B301821751F0E091B201F0E0E756FE4F9F
:10055000958F8093B20101C08081FF91EF919F91AF
:100560008F912F910F900FBE0F901F9018951F9293
:100570000F920FB60F9211242F933F938F939F9357
:10058000AF93BF9380918D0190918E01A0918F01C7
:10059000B091900130918C0123E0230F2D3720F48E
:1005A0000196A11DB11D05C026E8230F0296A11DCD
:1005B000B11D20938C0180938D0190938E01A093A7
:1005C0008F01B09390018091910190919201A0913F
:1005D0009301B09194010196A11DB11D80939101E9
:1005E00090939201A0939301B0939401BF91AF9126
:1005F0009F918F913F912F910F900FBE0F901F9061
:100600001895789484B5826084BD84B5816084BD7A
:1006100085B5826085BD85B5816085BD80916E00A0
:10062000816080936E0010928100809181008260D1
:10063000809381008091810081608093810080910E
:1006400080008160809380008091B10084608093FD
:10065000B1008091B00081608093B00080917A00F9
:10066000846080937A0080917A00826080937A001F
:1006700080917A00816080937A0080917A0080680E
:1006800080937A001092C100E7EAF0E02491E3E958
:10069000F0E08491882399F090E0880F991FFC0185
:1006A000EE58FF4FA591B491FC01E859FF4F859199
:1006B00094918FB7F894EC91E22BEC938FBFC1EA41
:1006C000D0E0FE0124910DE810E0F8018491882328
:1006D000C9F090E0880F991FFC01EE58FF4FA591DB
:1006E000B49188599F4FFC01459154913FB7F894BC
:1006F0009C91822F809598239C93FA019081892365
:1007000080833FBF60E08DE00E94AC01E091A901D1
:10071000F091AA0182E08083E091A501F091A60109
:100720001082E091A701F091A8018FEC80831092D4
:10073000B101E091AD01F091AE0186E08083E091DE
:10074000AB01F091AC01808180618083E091AB01CD
:10075000F091AC01808188608083E091AB01F091E1
:10076000AC01808180688083E091AB01F091AC01A5
:1007700080818F7D808395EBC92E90E0D92EEE2469
:10078000E394F12C30E4A32EF6018491FE019490C1
:10079000F801B490BB20B1F081110E948301EB2DD0
:1007A000F0E0EE0FFF1FCF0184589F4FFC01A59191
:1007B000B4918C91982291E080E009F490E0692E48
:1007C000782E02C0612C712CA0927C0080917A005E
:1007D000806480937A0080917A0086FDFCCF8090BF
:1007E000780080917900912C982A64EF71E080E084
:1007F00090E00E940102F5E68F16910414F4672838
:1008000031F58091970190919801892B09F043C0AF
:1008100083E191E00E943B0280E391E00E943B0271
:1008200061E08DE00E94AC0168EE73E080E090E052
:100830000E94010260E08DE00E94AC01F0929801FC
:10084000E0929701109296011092950124C0809138
:10085000950190919601892BF1F48DE491E00E942D
:100860003B0286E691E00E943B0261E08DE00E943F
:10087000AC0168EE73E080E090E00E94010260E06D
:100880008DE00E94AC01F0929601E09295011092E9
:100890009801109297010E94790176CFE9E9F1E081
:1008A0001382128288EE93E0A0E0B0E08483958307
:1008B000A683B78384E091E09183808385EC90E008
:1008C0009587848784EC90E09787868780EC90E01A
:1008D000918B808B81EC90E0938B828B82EC90E00B
:1008E000958B848B86EC90E0978B868B118E128E85
:1008F000138E148E0895EE0FFF1F0590F491E02DD6
:10090000099481E090E0F8940C948604F894FFCF69
:100910000000000010018C00D900B700CB00570187
:100920000D0A00437561636120436572616820614F
:1009300074617520546964616B2048756A616E004A
:100940004D656D75746172204D6F746F7220556EB8
:1009500074756B204D656E6A656D757200437561C7
:100960006361204D656E64756E67206174617520EA
:1009700048756A616E004D656D75746172204D6FCA
:10098000746F7220556E74756B204D656E79696D4C
:0C09900070616E2050616B6169616E0047
:00000001FF
